:020000040000fa
:080000000002040000000000f2
:020000040000fa
:10000800d2020000d2020000d2020000d202000098
:10001800d2020000d2020000d2020000d202000088
:10002800d2020000d2020000d2020000ce18000066
:10003800d2020000d2020000d2020000d202000068
:10004800c21b0000d2020000d20200002a160000e3
:10005800fa150000641b0000d2020000d202000062
:10006800d2020000d2020000d2020000d202000038
:10007800d2020000d2020000d2020000d202000028
:10008800d2020000d2020000d2020000d202000018
:10009800d2020000d2020000d2020000d202000008
:020000040000fa
:100400006f5e21000eff27000e0188000000000033
:10041000000020000000e000020032000001200087
:10042000200288000c000700e0dc21000100200011
:100430000f000700000020000000e0000200320072
:1004400000000200000000008e1602000000000004
:100450000040da000000fe00800120000000e00003
:1004600002003200002020009001880000000600f9
:10047000a1028800800078000000eb001a0037001d
:10048000e280400054a0b4009101ba00e280400034
:1004900054a0b4009102ba00e280400054a0b4001d
:1004a0000002eb00472bde00f507b200a601880032
:1004b000602ce10008003a000049eb000201e8006e
:1004c000020039003420ec0002f0a0008301e900b2
:1004d000f9ff3e00040037006128e100010032000e
:1004e0000082eb00040007001101ba000200e000e6
:1004f000e3ff3a000000060004d0a300e20f490029
:100500001c003900810278003549ba000201e80078
:10051000020039003420ec0002f0a0008301e90061
:100520000f0032002549ba000201e800020039003c
:100530003420ec0002f0a0008301e9000800320042
:100540000400e0000600320015c9ba000201e8000c
:10055000020039003420ec0002f0a0008301e90021
:100560008180e80054a0b4000300e000e2ff3a00fc
:10057000000006009102ba00055978008301e900e5
:10058000f7ff3200c82ade00055978008301e90030
:10059000f3ff32000400e000f1ff320011d9ba008d
:1005a000eeff37000040da000000fe000a00fa000b
:1005b000e20f500020003e0020af8000e10f50000d
:1005c0000600320080232000452320002323200042
:1005d000042320000000e00004003a0080222000f4
:1005e00045222000232220000422200006002800ab
:1005f0001403630003003a00060878000000280096
:10060000140a700013a8a30001003a0013a0a00070
:1006100002007800050037001388a300feff3200b7
:100620003102fb00840a78000000e9000000e000cd
:10063000f9ff3a000800370033002000b3bf9f00e5
:10064000c0bf9f00d1bf9f00e2bf9f006a805700dc
:10065000f80507006fb99700020078000080fa00e3
:100660000000060003f0a200889fbe008a9fbe0023
:100670008c1f780011010700180133006450e1005d
:100680004f0032006420e1005200320003826c000f
:1006900007003b000905d0000306d000820f54007c
:1006a0000c065d000200390002003200890178006a
:1006b000030678008582550004003d000003fd001c
:1006c0008103fd008502ea008b854200840f7200e1
:1006d00002003b0060001000e08018006011b800cc
:1006e0000005eb007a28e1000a00390006007800d6
:1006f000c75ddd00f707b200878075002d00370069
:10070000828171000a017800610560008180d1005a
:100710000080d3008502e900f9ff3b000604400099
:100720008784480002003b0060041400e0841c0041
:100730000988a300070032008a817100828171005c
:10074000610164008904d1000884d3008b05e800ae
:10075000170037000978a30013003a000b00e000ef
:10076000130034008b05e9000804440089844c0020
:100770000a4474000978a3000d003a000b00e00061
:10078000070034008b05e9000804440089844c000c
:1007900001003a000b0020000978a300f7ff3200a7
:1007a0000001eb0002003700828171000a0178002d
:1007b000870007000cf0a70001f0a000d000370070
:1007c0006420e10002003a00838f6c00d000330007
:1007d0000801be000200be00c9003700889fbe00ad
:1007e0008a9fbe008c1f7800b4000700bb00330056
:1007f00003866c006450e1002e0032006420e100aa
:10080000330032006150e1002f0032006120e1002e
:100810003100320085855500eb07b000090020004b
:1008200008042000050037000804440089844c00b7
:100830000a0031000603430087834b000001530088
:1008400081815b00f8ff33000203be000800a000b6
:100850000804440089844c00f6ff3900c639dd00e5
:100860008301730001003200130020008904d100cd
:100870000884d3000998a300050032000800a700ef
:100880000300a0008904d1000884d3008b05e80090
:100890008904d1000884d3000001eb000281d2005a
:1008a0004b00070001f0a1000cf0a70001f0a00030
:1008b000930037006420e100950032000801be007b
:1008c0000200be00f7ff37006120e1009000320017
:1008d0006000b800f3ff37000000200001f8270097
:1008e000f0ff3700839f68000100e00002003d0038
:1008f00060001000e08018000300e00002003d00ee
:1009000060011100e0811900b80007004f00e0000d
:1009100002003b0060001000e080180000000600ac
:100920000001be00500007000470a70003f0a10002
:100930006509b100160032000d0035006828e1009d
:1009400006003500f0ff2f00f1ff27000300e00054
:1009500013003b00010028000000050000004000db
:10096000818048008502e900fcff3a00080037005a
:10097000f88f420002003c008000eb000000050000
:100980008100d1000080d3008502e800fcff3a001e
:100990000300e00002003b0060001000e08018004f
:1009a000000006004f89de0082017800c600370093
:1009b0000001eb009d00070004003200020020004f
:1009c00003f8230001f0a70026ff0700000006003f
:1009d00081002000618055000b003d000b002000cd
:1009e00061fe2f000100e1001d00340082817100d2
:1009f000610164008904d1000884d3000000e8008c
:100a0000faff3a00710020006100640003007000ea
:100a1000020060000900320061044400e0844c00e0
:100a20000988a500050032008b05e8006808e10090
:100a300002003a008904d1000884d300f20f20009c
:100a40000258e10005003d00c75ddd00f907b20076
:100a50008980750008007800000006000bf8270068
:100a60008b00780000000500c70ade00f107b20025
:100a7000f50fb20008003200e1cf42000200320060
:100a80000170a00024000500810f700001003200f9
:100a90000408050044000500810f700002003a00c0
:100aa000140005008502e9000000400081c04800f4
:100ab000fcff3b000170a000240005000004be0004
:100ac000e9ff07000003be000405be000200be00ef
:100ad000e5ff0700844f7500000006000200be001d
:100ae0006450e100050036006420e1000200360099
:100af0000968a30001003a000800be000160a000e0
:100b00004f0678004f05be004f04be0000000600ef
:100b1000f0ff2f00f1ff2700f9ff3700889fbe008c
:100b20008a9fbe008c1f7800e4ff0700ebff3300b4
:100b300003866c006450e100240032006420e10070
:100b4000270032006150e100220032006120e10004
:100b5000210032008b854200eb07b1000134b80060
:100b6000003ab8000804420089844a00013ab800fb
:100b70000030b8008880400009014a0004003300ba
:100b80000000400081804800020149008b05e90017
:100b9000c909dd008301700001003200130020004c
:100ba000c814de004814dd004709de001200b20060
:100bb000c808de000884700085ff070001f0a1006e
:100bc0000cf0a70001f0a000cdff37006120e1008c
:100bd000cfff32000801be000200be00f7ff370061
:100be0006150e100fcff3a00c9ff37006022b80005
:100bf000060220000000d0008180d2000482d200d2
:100c00008582d2000000a0000202520083825a00b6
:100c1000030031000202420083824a000000a1006a
:100c20000603e900f3ff3a0000000600889fbe00bb
:100c30008a9fbe000003be008bff07008505780079
:100c400082815200020020006220e10004003a008c
:100c5000f307b100040035007718e1000400350007
:100c60000600be00140037006000b8000f00370017
:100c7000f50f2000faff2f008502d1000a85d3006e
:100c80008301e900fcff3b008184620000046500f1
:100c9000890f7400f2ff32008582ea000a85ea00bb
:100ca000818462000004650049ff070007f0a70087
:100cb00001f0a0000081eb000200e0004f05be0043
:100cc0004f04be0000000600881f7800030478006f
:100cd0000300e00007003d0060001000e080180005
:100ce00060011900e081190002003b0001f02d00b5
:100cf000030037000400070008f0a70001f0a0007f
:100d00004f04780000000600889fbe008a9fbe0046
:100d1000008270000402710004827100260032001b
:100d20000004be000200be006011b8006b09200084
:100d3000950220000182cf000a0039000541b10070
:100d40000082cf00070039000541b1000982cf00c1
:100d5000040039000541b1000882cf0001003900cc
:100d60000541b10005425200120032000a003b006a
:100d700082817100610164008100d1000080d30094
:100d80008984d3000884d3008b05e8000442e8007e
:100d9000f7ff3a00070037000804440089844c003c
:100da00000004800818048008b05e9000442e9000a
:100db000f9ff3a0006ff07004f05be004f04be00d2
:100dc00000000600000378008102780085017800a9
:100dd0000100370004037800110009008281d80067
:100de000800178000602e8000300e000f9ff3a0005
:100df000034a7800110009008282d80000027800be
:100e00008141780084027800e9cf5100010034006c
:100e1000e7c1410001c3b30001d341000400e00079
:100e2000f4ff3a000600780000000600881f7800f2
:100e3000000478000100e00005003d000800780093
:100e4000d3c2b300035878008100ea0001003700e4
:100e500008007800dbff0700080078004f047800e6
:100e6000000006000c00fa00889fbe000004780015
:100e7000f0ff2700d0bf9f008004eb0099bf9f00c8
:100e800088bf9f00a8bf9f00200c2000b0bf9f001c
:100e900078815700cfb0970070805700100007008e
:100ea0000fb89700094878008fb897000880500065
:100eb0004f04be000080fa0000000600d001900040
:100ec000028151004240a900030034001001780063
:100ed000014978000208e8000100780000000600df
:100ee000fe874700889fbe008a9fbe008c9fbe0081
:100ef0008e1f780080067800d1af9f0092b79f00c8
:100f00000007eb003d033700dfa897008100e800f1
:100f1000d1af9f0051c2b300814f500003003a008f
:100f20005fa897000006eb0011003700bd0090009d
:100f30000000fb000168a300070032000e017800ea
:100f4000800078000d007800dcff07000000e00062
:100f500005003a00290337008d00780033030700ad
:100f6000e10f4000250332000e07e800230337009d
:100f70008000780030417800d3c2b300834f510025
:100f80000c00320007003c00edc15100834f5100be
:100f90000a003200ebc14100834f51000d003a00be
:100fa0000800370003c3b300834f510009003a0023
:100fb000060037000c30a000edff37000c00a00049
:100fc000ebff37000c10a000e9ff37000c20a00059
:100fd000e7ff37000c18a300010032000c00a1004d
:100fe0000c38a300010032000c20a1000200fb001d
:100ff0000003b100e90f50000c003e000101780031
:101000000000eb00ea00b900b200fb000103b100f0
:1010100000804000820078009201fb000303b100d1
:10102000e98f5100f7ff3600080037000000eb00a1
:10103000a3c2b300834f510004003a001fb19700d0
:101040004200780092b79f008100e8008001eb0029
:10105000a3b79f00e2c2b300914f11000c003a0009
:101060000ce0a00064415100d14f11000300320098
:101070000101780003027800090037001fb29700d1
:10108000c402780094b79f00a5b79f008100e800d4
:101090000101780009003700ea22b900048241000a
:1010a00082007800b201fb000303b100e98f510018
:1010b000f9ff3600a4b79f00f5ff3700b240780073
:1010c000d2af9f00c3c6b30083cf500025003200cb
:1010d0000f003c0032c6b30082cf5000a0003200a7
:1010e00004003c000104e000c90232006b415100e1
:1010f0000f00370042c6b30082cf50001700320005
:101100006541410082cf5000b3003a001300370020
:1011100032c7b30082cf50001f00320007003c00ee
:101120006441510082cf5000140032000241e800b7
:1011300082cf5000a8003a001300370052c7b30016
:1011400082cf5000ab0032006341410082cf50009b
:10115000a1003a00e1d79f000d003700e1d79f00c2
:10116000a6003700010120000c48a3000100320056
:10117000010028000c867000d0ff3700e1d79f00e7
:101180000c60a0009d003700e1d79f000c50a0002c
:101190000c70a00099003700e1d79f009fb3970023
:1011a000c700780097b79f00b1b79f000100e0002b
:1011b00002003a0089442100b9b79f003fb197006f
:1011c0008000eb00010037008100e8008101410050
:1011d0001304e000fcff3a00c1b79f002fb5970051
:1011e0000a00e00005003200cfb597008b0f5500d4
:1011f000020031008a007800c1b79f00cfb097008d
:101200000004eb00810f5000010036000104500083
:10121000680666002b003a00110037003d00900080
:101220000068a300070032000e01780001022000d0
:101230000d00780021ff07000000e00006003a00e2
:10124000060037008d0078000002200077020700ba
:10125000e10f4000010032000e07e8000804e90039
:101260000800e000edff3a000084eb0015003700b5
:101270003d0090000068a3000900320008007800db
:10128000b000fb00000478000e0178000d0078002b
:101290000aff07000000e00008003a000f003700d6
:1012a000880078003100fb00010478008d00780090
:1012b0005e020700e10f4000080032000e07e80060
:1012c00006003700acb79f00080678003fb49700cf
:1012d000cfb497005fb59700efb59700090078008d
:1012e0008004e9000000e000e1ff3a00b8b79f0089
:1012f000c9b79f00dab79f00ebb79f000c047800d6
:101300002fb697000c00e0003c02320011003700bd
:101310003d0090000068a300070032000e01780035
:10132000010220000d007800e4fe07000000e0004c
:1013300006003a00060037008d0078000002200009
:101340003a020700e10f4000010032000e07e800fa
:101350000804e9000800e000edff3a00270237002a
:101360009fb297004504780095b79f00cfc4de0078
:10137000614db9000802be000a03be004822de002b
:10138000c828dd0004827000e4d79f000c48a30049
:10139000090032000404e00007003200e14f42007f
:1013a00005003200f4d79f0088df9f002200200054
:1013b000c2b79f0003003700f8d79f00130020003a
:1013c000c3b79f0064fd2f000f0242000402e80033
:1013d000b4b79f0081ff3700e1d79f0065fd2f0064
:1013e00085824700b5b79f0016002000c6b79f0052
:1013f0007aff3700e1d79f000c0cb3008c00780017
:10140000010cb20032003a000c00e00005003d0083
:101410009fb097004105be004104be0091b79f00f8
:10142000080037000c48a3000b0032001fb29700e1
:101430004401be0094b79f000204be004fcdde0001
:101440008a057800b8b79f00c9b79f00dab79f0038
:10145000ebb79f00090037009fb49700c9007800e0
:1014600099b79f00610ab900612bb900b4b79f001a
:10147000c5b79f00d6b79f00e7b79f003fb497005e
:10148000cfb497005fb59700efb59700e00f540019
:10149000e08f5c00e00f5d00e08f5d0022003d000a
:1014a0003c00b3006022b8006033b800080452006a
:1014b00089845a000a055b008b855b00b8b79f00e2
:1014c000c9b79f00dab79f00ebb79f00160037003f
:1014d0000c00e00004003d001fb497004803be006c
:1014e0004802be00050037000c48a300050032008a
:1014f0001fb497004802be006033b80098b79f0041
:10150000050037009fb49700c900780099b79f0085
:10151000610ab8006033b800b4b79f00c5b79f0038
:10152000d6b79f00e7b79f00afb297000500e00075
:101530000d003a0016002000a6b79f003fb49700a8
:10154000cfb497005fb59700efb59700e00f540058
:10155000e08f5c00e00f5d00e08f5d000200320074
:101560008004eb00a9b79f000c0578000a0cb200bc
:101570008ab79f0001042000810f5500340032001b
:1015800003003c000a00e000080032004800370079
:10159000010820008fb59700818f5500140032009c
:1015a000010c2000818f550041003a008245210046
:1015b00011c0b3003202be003203be003fb4970038
:1015c000cfb497005fb59700efb597000440e100f6
:1015d00005c8e10006d0e10007d8e100330039007a
:1015e0008140e800f4cf5000f2ff3a002f003700ae
:1015f00011c0b30004012000050020006033b800d2
:101600003fb49700cfb497005fb59700efb5970050
:101610000440e10005c8e10006d0e10007d8e10080
:1016200022003900490020000402d0008582d20047
:101630000683d2008783d2008904e900faff3a00ca
:101640008140e800f0cf5000edff3a00170037006e
:1016500011c0b30084002000050020006033b800f2
:101660003fb49700cfb497005fb59700efb59700f0
:101670000440e10005c8e10006d0e10007d8e10020
:101680000a003900390020000402d0008582d2000f
:101690000683d2008783d2008904e900faff3a006a
:1016a0008140e800f5cf5000edff3a00e1d79f0000
:1016b0006fd597008a00fb00afb597008b8f500065
:1016c00002003d00ebd79f00040037002fb19700c8
:1016d000810f510001003d00a1b79f000000e00014
:1016e00003003200e3006600010032000000e90060
:1016f0000ce8a30006003200afb19700830f500042
:101700000200340003005000010037000000eb002d
:101710006fd297008400fb008002eb00f5af9f00c2
:10172000810f50000200340081005000f1af9f0093
:101730000c28a3003c003200610166000c18a300d5
:101740000f0032003d0090000068a3000600320048
:10175000b10220000200e000010032008180e800b8
:101760000e0178000d003700b00220000200e000fa
:10177000010032000080e8008d0078000e00370084
:101780000200e000100032003d0090000068a3005d
:10179000070032000e017800010220000d007800e1
:1017a000c6fd07000000e00006003a000600370012
:1017b0008d007800000220001c010700e10f4000ae
:1017c000010032000e07e8007fab97000600e00042
:1017d00052003200060478003d0090000068a3002b
:1017e000070032000e017800010320000d00780090
:1017f000b2fd07000000e00006003a0006003700d6
:101800008d0078000003200008010700e10f400070
:10181000010032000e07e8000804e900eeff3a007c
:10182000f8af9f003d003700ffab97000700e000d6
:10183000160032000c38a30014003a0007047800a8
:101840003d0090000068a300070032000e01780000
:10185000010220000d00780098fd07000000e00064
:1018600006003a00060037008d00780000022000d4
:10187000ee000700e10f4000010032000e07e80013
:101880000804e900eeff3a00f8af9f00610166002e
:101890000c18a3000f0032003d0090000068a30068
:1018a00006003200b10220000200e0000100320018
:1018b0008180e8000e0178000d003700b0022000a2
:1018c0000200e000010032000080e8008d00780096
:1018d0000e0037000200e000100032003d009000d2
:1018e0000068a300070032000e017800010220000a
:1018f0000d00780071fd07000000e00006003a00ce
:10190000060037008d00780000022000c7000700a5
:10191000e10f4000010032000e07e8002fb49700ed
:101920008800e900c308dd00004521000080400078
:10193000e0af9f0096003700afb497008904e9003c
:10194000a9b79f00000420000fb59700800f550035
:101950006a00320003003c000a00e0000800320088
:1019600077003700000820008fb59700808f550062
:101970004c003200000c2000808f550070003a00af
:101980000c00e0001e003d006fa897003004be0070
:101990002005be000802be000a03be003fb097004b
:1019a000cfb097005fb19700efb19700c201070079
:1019b000e0d79f000000fb00cf80de006109b90086
:1019c0000802be000a03be00240207003fb29700cf
:1019d000cfb297005fb39700efb3970000025200b9
:1019e00081825a0002035b0083835b00b4b79f00cf
:1019f000c5b79f00d6b79f00e7b79f002500370007
:101a00000c48a3001a0032003fb29700cfb29700f3
:101a10006fab97003604be002605be000801be006d
:101a20000400be00f4b79f0085bf9f006ffc070055
:101a3000e0d79f000000fb00cf80de000801be0061
:101a4000fe0007007fb297008fba97000002520095
:101a500081825a000404be006055b800b8b79f00e8
:101a6000c9b79f00dab79f00ebb79f0009003700a6
:101a7000efac9700190178003fb5970011000900fd
:101a80000285d800a2002000110009000280d800c1
:101a9000e1d79f00efd597000b43b000ebd79f0035
:101aa00027003700704321000c58a30001003200ca
:101ab000604221002fb19700c210dd003fb29700b5
:101ac000cfb297005fb39700efb397008100e900b2
:101ad000050033008703d1000683d3008582d3003d
:101ae0000482d300f9ff37006f0262000402400055
:101af00014427800e4d79f0011003700afb197007f
:101b0000e318b9003fb29700cfb297005fb39700d8
:101b1000efb39700000478000804e90005003300e3
:101b20008703d1000683d3008582d3000482d300cb
:101b3000f9ff3700674062000043b000e0d79f0024
:101b4000bd009000efd497000900fb000168a300de
:101b5000070032000e017800800078000d00780048
:101b6000d6fc07000000e00005003a000500370041
:101b70008d0078002d000700e10f400001003200c9
:101b80000e07e8006fad970068055500eaaf9f00ab
:101b9000afb597000b00e00067ff3a000c38a300d8
:101ba000160032007fa897000000e0001300340008
:101bb000000478003d0090000068a3000700320098
:101bc0000e017800010220000d007800bbfc070028
:101bd0000000e00006003a00060037008d007800a3
:101be0000002200011000700e10f40000100320058
:101bf0000e07e8000804e900eeff3a00dfa89700ae
:101c000011407800e0d79f000004e000befc3a00dd
:101c10000e0078004f0778004f06be004f05be004b
:101c20004f04be00ef01b10000000600889fbe0017
:101c300001047800b80090008084eb000118a30034
:101c40003a003200180190000198a30002003a0007
:101c50000200e00035003a000190a0003104980035
:101c600080047800f90fb2000200e00002003a00a0
:101c700028009000000c7800ea8f540005003a001c
:101c80000178a30003003a0088007800d00020000b
:101c9000e6ff070018009000d8009000810f500068
:101ca0000b0032000000e8001004980018007800d3
:101cb00009487800000ce80011c0b300e05d210085
:101cc00001487800ea8f540018003a0005003700f8
:101cd0008800780009407800170007008004780029
:101ce00012003700380090000088a3000f00320077
:101cf00018019000a8009000480090002bfa0700ff
:101d000098009000810f50000400320038009000cd
:101d10000003b300300498008084eb000000eb0067
:101d20001004980028009000000c7800090078004a
:101d30004f04be00000006000200fa00889fbe00ab
:101d4000a0ff9f0001047800380090000068a30005
:101d500033003a00e200600005003a000003b300df
:101d600030049800110498000080eb002e0037002a
:101d7000d80490000900e00006003a00120020009c
:101d8000e68057004800900008fa07001904980000
:101d900023003700a80090000100e00008003a008e
:101da000115e210021049800010c78002100200020
:101db00051049800110498000030a00030049800ed
:101dc00018019000a800900048009000f7f9070063
:101dd000280090008080eb0011049800aff8970075
:101de00001487800000ce8002ff89700ea4f5000f7
:101df0000b003a00380090000088a3000800320071
:101e000018019000a800900048009000e7f9070032
:101e10000000eb0010049800a8009000010c78006e
:101e2000aff897000100fb004f04be000080fa00ed
:101e30000000060000c0da0000000600020ab90037
:101e4000001bb9000200b80081004200810043007d
:101e500000000600889fbe008a9fbe00300442003a
:101e6000b0844a0030054b0090854b006000b10003
:101e70000898be000a90be000440e10005c8e100d9
:101e800006d0e10007d8e100020031006800400000
:101e90001008e8004f05be004f04be000000060019
:101ea000889fbe008a9fbe003004be002005be0091
:101eb0000418540005985c0006185d0007985d0042
:101ec000110020000440e10005c8e10006d0e10057
:101ed00007d8e100010039008000eb0010881000f5
:101ee0004f05be004f04be00000006001200fa00bd
:101ef000889fbe008a9fbe008c9fbe00e0b79f00f7
:101f0000f1b79f0082bf9f0093bf9f000605be00f0
:101f10000404be000000eb00d0b79f00c0b79f00d4
:101f2000b0b79f00a0b79f0090b79f000006eb00de
:101f30005fb19700cfb09700820141003fb097009a
:101f40000200e00004003d00370007007e805700db
:101f5000c0ff070003003700330007007e805700f2
:101f6000cfff0700dfb697000d00e0000c00350042
:101f70006fb29700ffb297000fbb97009fbb97000f
:101f800010002000010020006011b8000002720063
:101f90008182720002037300838373001b000700b9
:101fa0000c06e80001042000810f5600e0ff3a0013
:101fb0000d00e00004003d000802be000a03be0060
:101fc0007e805700a3ff07005fa897000000e00095
:101fd00005003a001fb29700afb297003fb39700d9
:101fe000cfb39700090007006fb09700ffb09700cc
:101ff0000fb997009fb997004f06be004f05be006e
:102000004f04be000080fa00000006000100070037
:1020100000000600a4b79f00b5b79f00c6b79f0099
:10202000d7b79f00000006004f09de0082817100d3
:10203000b3b79f004f01de008180400082807000b6
:10204000a1b79f008fb097004f09de00000040004d
:102050000200700090b79f007fa897004f01de003c
:10206000818040008280700081b79f000d000700d2
:102070004f3ade000000400004007000f0af9f0007
:10208000080007000402420085824a0006034b0054
:1020900087834b00dfff07000802be000a03be0073
:1020a000000006002fb29700bfb297004fb3970011
:1020b000dfb3970000000600881f7800180020009a
:1020c000881f780089ff07008f87e9004f04780098
:1020d00000000600801feb0084ff07008f87e900e7
:1020e00000000600889fbe008a9fbe00e00f5000df
:1020f000e08f5800e00f5900e08f59000c003d00c0
:102100006044b8006055b8000000540081805c0055
:1021100002015d0083815d001800200015000700aa
:1021200008003d00180007000004eb000500370020
:102130000004eb000f00070002003d001200070042
:1021400018002000dcff07000800e0000600320055
:102150006022b8006033b8000000520081805a004d
:1021600002015b0083815b004f05be004f04be008f
:1021700000000600e00f5200e08f5a00e00f5b0005
:10218000e08f5b00000006006044b8006055b800b6
:102190000402540085825c0006035d0087835d00b5
:1021a00000000600889fbe008a9fbe008c1f78003a
:1021b000e00f5000e08f5800e00f5900e08f590009
:1021c0000d003d006044b8006055b80000005400a8
:1021d00081805c0002015d0083815d001c002000a5
:1021e0000820e10009a8e1000ab0e1000bb8e10015
:1021f0000d003d00080037000006eb00e00f520024
:10220000e08f5a00e00f5b00e08f5b0006003d00ae
:102210006044b8006055b8000402540085825c0038
:1022200006035d0087835d00aaff07000c00e00045
:10223000060032006022b8006033b800000052008f
:1022400081805a0002015b0083815b004f067800a9
:102250004f05be004f04be0000000600889fbe0070
:102260008a9fbe008c1f78000006eb00e00f500034
:10227000e08f5800e00f5900e08f590007003d0043
:102280006044b8006055b8000000540081805c00d4
:1022900002015d0083815d001c002000e00f520000
:1022a000e08f5a00e00f5b00e08f5b0007003d000d
:1022b0006044b8006055b8000402540085825c0098
:1022c00006035d0087835d000c00a2000c00070080
:1022d0000c00e000060032006022b8006033b80055
:1022e0000000520081805a0002015b0083815b0084
:1022f0004f0678004f05be004f04be0000000600e8
:10230000889fbe008a9fbe008c9fbe000404b80058
:102310000506b8008904460060854e000606b80030
:102320000a054600e0854e000706b8008b0546000a
:10233000040eb800890446000a854e00e0854d0071
:10234000050eb8000a0546008b854e00060eb80043
:102350008b0546000416b8000a0546008b854e0022
:102360000516b8008b054600041eb8008b05460014
:102370000800be000a01be004f06be004f05be00a9
:082380004f04be00000006003e
:020000040000fa
:1023880030310000323300003435000036370000a9
:10239800383900004142000043440000454600002f
:1023a800256400002e25000030320000690000007e
:020000040000fa
:1023b8000200fa000000eb00000f78001e00780011
:1023c800004078000080fa00000006000200fa00d1
:1023d8000000000001003700000000002f00070087
:1023e8000004e000fcff32003bd0bf000080fb008f
:1023f8004155210000804000104f78003bd0bf00bd
:102408000040e8003bf0b7003bd0bf003046b200c8
:102418003bf0b7001e4078000080fa00000006007c
:102428000000fa0090002000401188002022ef00f0
:102438002062a9002222ef000168a9002168a800f3
:1024480021e2a8002342a8002136800000f82f00ce
:1024580080806000a0022000010070002036880003
:1024680041348000f00f2c008080600000102000b4
:1024780001007000403488003970ef0039d0bf0087
:1024880038f0b70038d0bf003bf0b7003bd0bf00f2
:102498003af0b7000080fa00000006000000fa00d9
:1024a80010118000620060000000e00003003200ac
:1024b8002222a9000040eb0008003700a1032100f8
:1024c800914078003bd0bf0000c068000080fb004e
:1024d8000000ea004f00de00004078000080fa00ab
:1024e800000006000000fa0010118000004078008b
:1024f800614060000080fa00000006000200fa0057
:10250800000f7800040037001e00780010407800a3
:102518001e0fe800060007001e0078001040780033
:102528000004e000f8ff3a000080fa00000006000e
:102538000200fa00004f7800000000000100370098
:1025480000000000111180000020200000806000c1
:102558000000e000faff3a0038d0bf000080fb001e
:102568009e407800024f2100000041000148780099
:1025780038d0bf000040e8003046b20038f0b7005d
:102588002188a8000080fa00000006000400fa0074
:10259800204798000040eb00004f7800ae409000c4
:1025a800114798009e40900030c6b30080cf50007d
:1025b8000b0036001e4090008080fb004006200083
:1025c80000017800110009008280d80000407800de
:1025d8000043b000d6ff070010c0b300004f7800da
:1025e8001e4090008080fb0040062000000178001b
:1025f800110009008280d80080407800c0092000be
:102608008088b900004078009e40900000c04000db
:10261800104798001e409000e94f500003003e000c
:102628001e407800e14f500009003a001e4090001b
:102638008080fb00a0002000000178001100090044
:102648008280d800004078000043b000b8ff07003f
:102658001e4090008080fb00a00020000001780050
:10266800110009008280d80080407800600f2000a7
:102678008088b900004078009e40900000c040006b
:10268800104798001e4090000043b000a8ff0700c4
:102698000080fa00000006000400fa001007980005
:1026a8009e009000010f78001e0090004480de001c
:1026b8006f00600010079800411c29001e00900060
:1026c800008040001040780099ff07009e007800c5
:1026d8006f80600010079800411c29001e009000c0
:1026e800008040001040780091ff07000080fa0049
:1026f800000006000400fa00100798001e00900071
:102708004c00de00000f7800401c29001e0040002d
:102718001040780086ff07001e0090004800de0089
:102728006f0f6000401c29001e0040001040780018
:102738007fff07001e0090004400de006f0f60005e
:10274800401c29001e0040001040780078ff070058
:102758001e0090006f0f6000401c29001e00400002
:102768001040780072ff07000080fa0000000600a1
:102778000800fa0020079800310798002e00900002
:10278800be0090004c08de0001002000008fbe0053
:10279800401c29001e0040001040780064ff07001c
:1027a8002e009000be0090004809de0003002000c3
:1027b800f000200001002000020278008301780068
:1027c80000017800010078000201620000806100c9
:1027d8008000eb00c000dd0000002000008fbe007c
:1027e8006110b8001e1f70001e977000401c290061
:1027f8001e004000104078004dff07002e0090009a
:10280800be0090004409de0003002000f000200014
:10281800010020000202780083017800000178009e
:102828000100780002016200008061008000eb0076
:10283800c000dd0000002000008fbe006110b8005d
:102848001e1f70001e977000401c29001e004000cb
:102858001040780036ff07002e009000be00900060
:102868004009de0003002000f000200001002000e5
:1028780002027800830178000001780001007800e6
:1028880002016200008061008000eb00c000dd00f2
:1028980000002000008fbe006110b8001e1f7000ed
:1028a8001e977000401c29001e0040001040780050
:1028b8001fff07002e009000be009000cc09de002c
:1028c800440add004c01de0002017200f000200025
:1028d80001002000020278008301780000017800de
:1028e8000100780002016200008061008000eb00b6
:1028f800c000dd0000002000008fbe006110b8009d
:102908001e1f70001e977000401c29001e0040000a
:102918001040780006ff07002e009000be009000cf
:10292800c809de00480add004801de000201720025
:10293800f0002000010020000202780083017800e6
:102948000001780001007800020162000080610047
:102958008000eb00c000dd0000002000008fbe00fa
:102968006110b8001e1f70001e977000401c2900df
:102978001e00400010407800edfe07002e00900079
:10298800be009000c409de004c0add004401de00f0
:1029980002017200f000200001002000020278000d
:1029a80083017800000178000100780002016200cc
:1029b800008061008000eb00c000dd000000200006
:1029c800008fbe006110b8001e1f70001e977000b7
:1029d800401c29001e00400010407800d4fe07006b
:1029e8002e019000be019000f000200001002000a0
:1029f8000202780083017800000178000100780065
:102a080002016200008061008000eb00c000dd0070
:102a180000002000008fbe006110b8001e1f70006b
:102a28001e977000401c29001e00400010407800ce
:102a3800bffe07000080fa00000006000200fa004e
:102a4800004f780060c6b3009e40780080cf5000e9
:102a5800020034000040eb002500370000c6b30038
:102a68009e40780080cf5000040034009e407800db
:102a780090cab30000c040001d00370060c4b30016
:102a88009e40780080cf5000020034000040eb00e8
:102a98001700370000c4b3009e40780080cf500074
:102aa800040034009e40780090ccb30000c0400081
:102ab8000f00370090c3b3009e40780080cf5000cd
:102ac800020034000040eb0009003700f0c2b300f8
:102ad8009e40780080cf5000040034009e4078006b
:102ae80000cdb30000c04000010037000040eb00fb
:102af8000080fa00000006000400fa002047980051
:102b08002e4090006f4f60001e407800e94f500043
:102b1800030034001e4078007043b0000200370004
:102b28001e4078000043b0000080fa000000060054
:102b38000000fa0010118000620060000000e00050
:102b4800010032002222a9000080fa0000000600dd
:102b58001800fa00200f9800310f9800ec00470089
:102b6800030009008018eb002e089000be089000b2
:102b78008df70700008fbe001e01be002e089000d2
:102b8800be089000b5f607002007980031079800a6
:102b98001e00be0060f707004007980002002000f2
:102ba800a34724002e009000be009000d9f707002c
:102bb80059f70700500798006c004700de009000a6
:102bc800811f7800ce009000811f7800411d2900e8
:102bd800811f7800a1f80700e68757006c004700be
:102be80046fe07000080fa0000000600809fbe0035
:102bf8000000fa0039d0bf000080fb00014f21001f
:102c080000804000104078000080fb002011880000
:102c180039d0bf000040e80039f0b70039d0bf0014
:102c28003046b20039f0b700910321009140780096
:102c380038d0bf0080cf500001003a002188a90099
:102c48000080fa004f00be0000400600809fbe00d2
:102c5800821f78000000fa003ad0bf000080fb0015
:102c68003111800081407800425521000000410068
:102c7800014878003ad0bf000040e8003046b20072
:102c88003cf0b700c1032100914078003bd0bf0061
:102c980080cf5000020032003cd0bf003af0b700ad
:102ca8000168a9000080fa004f0178004f00be00bb
:102cb800004006000400fa001007980040062000b3
:102cc800000f7800080037001e0078000000400060
:102cd8009e009000008040001000780085fe0700ec
:102ce800c0c2b30012fe07001e00780000f0a70063
:102cf8000000ea000000ea004f00de000040780013
:102d08001e0fe9000004e000efff3a000080fa001f
:102d1800000006000a00fa003007980041079800f2
:102d2800e1004700040009008058eb002001200062
:102d3800303a8800203a80000060a1000070a100ad
:102d4800203a8800213a800000fe2f0000806000b1
:102d5800203a88001200200080072000a1092000e6
:102d680033742000804978008149780082497800ce
:102d78001200200060042000710520002374200048
:102d88008049780081497800824978000000000075
:102d9800113a8000000027008080600000002100b8
:102da800808f5000faff3a0000000000113a8000be
:102db80000022000008060000000e000fbff3200fd
:102dc800108ea900148ea80085eaa800854aa800dc
:102dd80082eaa80083caa8003b01070090fd07000b
:102de800200880000040a0000050a00020088800b3
:102df800e0302000100888000021ef000042800029
:102e080000c0a10000d0a00000e0a100004288009e
:102e18000068a9002068a80005e1a80001003700a3
:102e2800000000009dfd07000004e000fcff3200e8
:102e380066fd0700004f78001e00fb006101b90025
:102e4800f0fb2f00f1ff2f000200400083804800b4
:102e58003203200003002000820f5000838f5800a7
:102e6800ca003e00000601006f00370075003700f9
:102e780058003700c5003700c4003700c3003700ca
:102e8800c2003700c1003700c0003700bf0037005c
:102e9800b0003700bd003700bc003700bb0037006a
:102ea800ba0037006e003700b8003700b7003700a7
:102eb800b600370020003700b4003700b3003700f1
:102ec800b2003700b1003700b0003700af0037005c
:102ed800ae003700ad003700ac003700ab0037005c
:102ee800aa003700a90037004f0037005500370007
:102ef80038003700a5003700a4003700a3003700ca
:102f0800a2003700a1003700a00037009f0037005b
:102f1800900037009d0037009c0037009b00370069
:102f28009a0037004e0037009800370097003700a6
:102f38009600370000003700208180003181800032
:102f4800e00f5000e08f580015003200208180000b
:102f580031818000620e20008289b900e002b90048
:102f68008401780003014100630e20000300b800cb
:102f78000101410082007800624e2300e3ff2f0028
:102f88000000410081804900320f2000030020002a
:102f980052f60700000078006081880001003700c1
:102fa8002c30ef0060818000800078000e00e8007f
:102fb800a20020009bf70700a0cab3005cfd070031
:102fc8000e00e8004dfd070050c5b30058fd07008e
:102fd8006f0037004081800051818000f01fb100f0
:102fe8000180b1006df60700323323003318240046
:102ff800c8f6070002002800a33a2400f5f50700e8
:103008007081880081818800a0cab30048fd07004c
:103018007081800081818000cdfe070050c5b3001b
:1030280043fd07005a003700a0cab30040fd07005f
:10303800602921001fff070050c5b3003cfd0700b1
:1030480053003700a0cab30039fd0700e03521005e
:1030580018ff070050c5b30035fd07004c003700c6
:10306800148ea9006009200055030700148ea800db
:10307800a0cab3002efd07002081800031818000a6
:10308800e00f5000e08f58001500320020818000ca
:1030980031818000620e20008289b900e002b90007
:1030a8008401780003014100630e20000300b8008a
:1030b8000101410082007800624e2300e3ff2f00e7
:1030c8000000410081804900320f200003002000e9
:1030d80002f60700000078006081880001003700d0
:1030e8002c30ef004081800051818000f01fb1003a
:1030f8000180b10029f60700323323003318240079
:1031080084f6070002002800a33a2400b1f507005e
:10311800708188008181880060818000800078004b
:103128000e00e800a20020003ef707000e00e800ad
:10313800f2fc070030c2b300fdfc0700708180007c
:103148008181800082fe070050c5b300f8fc0700ab
:103158000f00370090c0b3005602070032f0b700e6
:1031680032d0bf008080fb000e00e800a2002000e3
:103178002cf70700a0cab300edfc07000e00e8001a
:10318800defc070050c5b300e9fc070000000000a2
:1031980024ff37003600f800809fbe00829fbe00e3
:1031a800849fbe00869fbe000000fa00a0818000b8
:1031b8000000e800a0818800a1818000400620006e
:1031c800808f5000380034001000200010818800e3
:1031d800cf000700e20007006101b80020818000ed
:1031e80031818000020040008380480020818800ef
:1031f80031818800c6000700050107006101b80099
:103208004081800051818000020040008380480096
:103218004081880051818800b08180000000e8006a
:10322800b0818800b0818000e10f500014003400a4
:1032380020818000318180004f09de008001eb0091
:1032480002004000838048008180d1000080d300c4
:103258002081880031818800408180005181800070
:103268004f09de008001eb00020040008380480027
:103278008180d1000080d30040818800518188007e
:10328800b1818000b0032000808f50000500340019
:103298003630ef002430ef002630ef002830ef0002
:1032a8002a30ef003430ef000068a9000080fa00ef
:1032b8004f03be004f02be004f01be004f00be00cc
:1032c8003600f900004006000000fa00046ea9006c
:1032d800006ea800040ea900000ea800144ea90054
:1032e800104ea800146ea900106ea8000e0ea800bb
:1032f8002023ef00001980000080a1000090a100a9
:1033080000198800001980000050a0000060a0008b
:103318000070a000001988002043a80080c0b300f6
:1033280024e3b70021198000f00f2e008080600090
:1033380000802000010070002019880041198000d9
:1033480000fe2f00008060004019880028e3a900d3
:1033580001a8a900304280000040a1000050a00050
:103368000060a1003042880021a8a90013e1a9004b
:103378000a21ef00100320007008880090088000e0
:103388000040a0000050a000900888000108a90093
:103398002108a80013e1a90021e3a8000080fa0091
:1033a800000006000000fa0004d0bf000080fb0007
:1033b8000080fa00000006000200fa00000f780002
:1033c8001e0078000040780004f0b7000080fa0082
:1033d800000006000a00fa0030079800410798002c
:1033e8000040eb00404798000000eb00000f780019
:1033f8000000eb0010079800120037001e00900034
:1034080000004000be0090000080400010007800de
:103418009e0f5000080036001e009000000040007b
:10342800be00900000804000100f78004e409000d1
:103438000040e800404798001e0090000000e800a7
:10344800100798009e00900020062000808f5000f2
:10345800eaff34004e009000ce409000014878000a
:103468001e0078000080fa00000006000000fa0044
:103478002108a80013e1a80001a8a90021a8a80014
:1034880021e3a8000470ef000080fa0000000600a5
:103498000000fa002108a90013e1a90021a8a90049
:1034a80021e3a9000030ef000230ef001a30ef00ee
:1034b80010c0b30004f0b7000080fa000000060056
:1034c8000200fa00004f78009e4078007fc060003c
:1034d8000080fb007f0060004219800001fe2f0081
:1034e8008100610001007000401988002023a800b5
:1034f8000000000000198000610060000000e0008a
:10350800fcff3200001880000080fa00000006006e
:103518000400fa000000eb00000f78000b003700f1
:1035280040062000430207000040eb00e4ff0700cc
:10353800100798009e00900000202000808f500007
:1035480002003a0010002000000f78001e007800ea
:103558000000e000f2ff32000080fa0000000600e0
:103568000400fa000000eb00100798000000eb00d0
:10357800000f780019003700800c20002d0207008a
:103588000040eb00ceff0700800078001e007800a6
:103598000001400060292100000041000108780076
:1035a8001e00780080004000602921000080400053
:1035b800900078001e009000808f500006003600b2
:1035c8001e00780080004000602921000080400033
:1035d80090007800110798001e0fe80030062000c0
:1035e8009e007800808f5000e3ff34009e0090001a
:1035f80050222000808f500002003e00f01f200063
:10360800100798001e0090000080fa0000000600d5
:103618000400fa000000eb00100798000000eb001f
:10362800000f780019003700800c20000102070005
:1036380030c0b300a2ff0700800078001e007800a9
:1036480000014000e0352100000041000108780039
:103658001e00780080004000e03521000080400016
:10366800900078001e009000808f50000600360001
:103678001e00780080004000e035210000804000f6
:1036880090007800110798001e0fe800300620000f
:103698009e007800808f5000e3ff34009e00900069
:1036a800b0212000808f500002003e00f01f200053
:1036b800100798001e0090000080fa000000060025
:1036c80000a0fe003200f8003400f800881f7800df
:1036d80018002000a8018800082020009801880010
:1036e800000000004f0478000000fa00008080000d
:1036f8000218800080014000611021008180410093
:10370800820878000000e8000080880010808000af
:103718001218800080014000e103210081804100ef
:10372800820878000000e80010808800d0808000bf
:103738000000e800d0808800d1808000300620009a
:10374800808f50000700340021e3a90021a8a900b8
:103758000030ef000230ef001a30ef0010c0b30065
:1037680004f0b70001a8a9000080fa003400f900ad
:103778003200f9000080fe0000400600801f78003b
:103788000000fa00008180000000e8000081880045
:1037980000818000f00f5000010034002030ef005d
:1037a8000108a9000080fa004f00780000400600d8
:1037b8000000fa0011eea90013eea900401f200036
:1037c8009c01070011eea800500020009901070095
:1037d8009170800000002800008060000000e00078
:1037e80002003a000040eb000d0037000005200001
:1037f80090010700917080000000280000806000a0
:103808000000e000020032000040eb000400370036
:10381800401a20008701070011eea80010c0b3006d
:103828000080fa00000006000000fa0011eea9006e
:1038380013eea900401f20007e01070011eea8002a
:10384800000520007b010700401a200079010700cd
:1038580011eea8000080fa00000006000400fa003b
:10386800204798000040eb00004f78001a0037000e
:103878002e409000614060001047980011eea900aa
:1038880013eea900200020006a0107001e409000e6
:10389800614060000080fb004f00dd0092708000f6
:1038a800f1ff27008100610001007000907088001e
:1038b800c00320005f01070011eea80020002000cf
:1038c8005c0107002e4090000080fb000000d10042
:1038d800204798001e4fe8001e407800e74f500030
:1038e800e3ff36000080fa00000006000400fa003a
:1038f8000040eb00104798000040eb00004f7800b4
:103908001900370011eea90013eea90020002000cd
:103918004801070011eea8008000200045010700bb
:10392800907080004f00de0000407800204798002b
:103938001e4090000080fb000000d1001047980056
:103948002e409000e14f500004003a009e40900045
:1039580000c8b30000c0400010479800800720004e
:10396800340107001e4fe8001e407800e74f500062
:10397800e4ff36001e4090000080fa0000000600b8
:103988000c00fa00204f98002e489000e84f500095
:10399800020036000040eb001a003700a2ff0700c3
:1039a800c0ccb300adff0700e0cbb300abff07000e
:1039b800ceff0700004f7800ccff070010479800a3
:1039c800caff070020479800c8ff07003047980043
:1039d800c6ff070040479800c4ff070050479800fb
:1039e800c2ff070060479800c0ff070070479800b3
:1039f800beff0700004f98002e4890000080fb0093
:103a08006e4078000080fa00000006000400fa000a
:103a1800204798002e409000e84f500003003600e1
:103a28002e409000ec4f50000200360090c0b300ca
:103a3800204798002e4090000080fb00690050004d
:103a48004500dd00000f780059ff07000004e00082
:103a580002003a0030c6b30014003700c0ccb300ef
:103a68007eff0700e0c4b3007cff0700d0c7b300a7
:103a78007aff070090ccb30078ff07001e0078009b
:103a88000040780075ff070067ff0700c0ccb3004f
:103a980072ff070080c4b30070ff0700f000200029
:103aa800c70007000040eb00b5ff07000080fa00e0
:103ab800000006000600fa00404798004e409000bb
:103ac800d2ff07001047980039ff07000004e00004
:103ad80002003a0030c6b3002c003700c0ccb30057
:103ae8005eff070040c4b3005cff07001e40900063
:103af8000080fb00110020000008dd00004f780066
:103b08000200370040062000ad0007001e80fb00c1
:103b18000000ea004f00de00004078001e4fe90078
:103b28000004e000f7ff3a0040062000a400070068
:103b380010c0b30092ff07000080fb001007980038
:103b48001e0090004800dd00100798000040eb00c0
:103b58008bff07000080fb009e0090000080400063
:103b6800100798009e009000f07f20000080600001
:103b7800100798009e0090000001200000017800c6
:103b8800110009008200d800004078000080fa0087
:043b98000000060023
:020000040000fa
:103b9c002210000016000000800000003e10000003
:103bac00e80300008000000000100000220000006c
:103bbc0080000000f0140000c8000000800000002d
:103bcc0038100000060000008000000026140000e1
:103bdc00ca0000008200000030313200333435005e
:103bec003637380039414200434445004600300026
:103bfc0031323300343536003738390061626300b6
:103c0c006465660000286e00756c6c00290000006d
:103c1c00010000000000000000000a00000000008d
:103c2c000000000000640000000000000000000024
:103c3c00e803000000000000000010002700000056
:103c4c000000000000a08600010000000000000041
:103c5c0040420f0000000000000080009698000019
:103c6c00000000000000e100f5050000000000006d
:103c7c0000ca9a003b00000000000000e40b540056
:103c8c00020000000000e800764817000000000069
:103c9c000010a500d4e8000000000000a0724e0047
:103cac0018090000000040007a10f3005a000000d0
:103cbc000080c600a47e8d000300000000c16f00d0
:103ccc00f2862300000000008a5d78004563010045
:103cdc0000006400a7b3b600e00d000000e8890006
:103cec000423c7008a000000b8150000260000005d
:103cfc0082000000df15000000df15000900000045
:103d0c0000020000e115000000e115000e020100a8
:103d1c00000000000000000000000000060202008d
:103d2c0000000000b8150000de15000006000000c1
:103d3c0080000000e415000002000000820000007a
:083d4c0001000000000000006e
:020000040000fa
:103d54000800fa0020079800310798003e00900000
:103d6400f401b9002e009000e000b9000001410008
:103d7400ae009000400120000008b800010141009d
:103d840082007800008fbe00000000001e00be000c
:103d94000081700002f0a7000201ea000201ea00bb
:103da4004f11de000241780061005000e0805800ad
:103db400008fbe000204e000f4ff3a000080fa0025
:103dc400000006000400fa00100798000d003700f8
:103dd40040c0b300004f780003003700900120007a
:103de40001002000daff07001e80fb000000ea004b
:103df4004f00de00004078001e4fe9000004e000a0
:103e0400f6ff3a001e00900000f0a7000000ea0050
:103e14000000ea004f00de00004078009e009000a1
:103e24008100e900110798000004e000e8ff3a006f
:103e34000080fa00000006000400fa001007980051
:103e44000000eb00000f78000300370013000900a6
:103e5400000000001e0fe8009e0078001e00900085
:103e6400808f5000f9ff39000080fa00000006003e
:020000040000fa
:02000004000af0
:04afe000deff000090
:020000040000fa
:02000004000af0
:04afe400ffff00006b
:020000040000fa
:02000004000af0
:04afe8007fff0000e7
:020000040000fa
:02000004000af0
:04afec007fff0000e3
:020000040000fa
:02000004000af0
:04aff00078ff0000e6
:020000040000fa
:02000004000af0
:04aff400ffff00005b
:00000001FF
